{
  "contractName": "Certification",
  "abi": [
    {
      "anonymous": false,
      "inputs": [
        {
          "indexed": false,
          "internalType": "string",
          "name": "certificate_id",
          "type": "string"
        }
      ],
      "name": "CertificateIssued",
      "type": "event"
    },
    {
      "inputs": [
        {
          "internalType": "string",
          "name": "",
          "type": "string"
        }
      ],
      "name": "certificates",
      "outputs": [
        {
          "internalType": "string",
          "name": "name",
          "type": "string"
        },
        {
          "internalType": "string",
          "name": "uid",
          "type": "string"
        },
        {
          "internalType": "string",
          "name": "coursename",
          "type": "string"
        },
        {
          "internalType": "string",
          "name": "orgname",
          "type": "string"
        },
        {
          "internalType": "string",
          "name": "ipfs_hash",
          "type": "string"
        },
        {
          "internalType": "string",
          "name": "description",
          "type": "string"
        }
      ],
      "stateMutability": "view",
      "type": "function",
      "constant": true
    },
    {
      "inputs": [
        {
          "internalType": "string",
          "name": "_certificate_id",
          "type": "string"
        },
        {
          "internalType": "string",
          "name": "_name",
          "type": "string"
        },
        {
          "internalType": "string",
          "name": "_uid",
          "type": "string"
        },
        {
          "internalType": "string",
          "name": "_coursename",
          "type": "string"
        },
        {
          "internalType": "string",
          "name": "_orgname",
          "type": "string"
        },
        {
          "internalType": "string",
          "name": "_ipfs_hash",
          "type": "string"
        },
        {
          "internalType": "string",
          "name": "_description",
          "type": "string"
        }
      ],
      "name": "generateCertificate",
      "outputs": [],
      "stateMutability": "nonpayable",
      "type": "function"
    },
    {
      "inputs": [
        {
          "internalType": "string",
          "name": "_certificate_id",
          "type": "string"
        }
      ],
      "name": "getCertificate",
      "outputs": [
        {
          "internalType": "string",
          "name": "_uid",
          "type": "string"
        },
        {
          "internalType": "string",
          "name": "_name",
          "type": "string"
        },
        {
          "internalType": "string",
          "name": "_description",
          "type": "string"
        },
        {
          "internalType": "string",
          "name": "_coursename",
          "type": "string"
        },
        {
          "internalType": "string",
          "name": "_orgname",
          "type": "string"
        },
        {
          "internalType": "string",
          "name": "_ipfs_hash",
          "type": "string"
        }
      ],
      "stateMutability": "view",
      "type": "function",
      "constant": true
    },
    {
      "inputs": [
        {
          "internalType": "string",
          "name": "_certificate_id",
          "type": "string"
        }
      ],
      "name": "isVerified",
      "outputs": [
        {
          "internalType": "bool",
          "name": "",
          "type": "bool"
        }
      ],
      "stateMutability": "view",
      "type": "function",
      "constant": true
    }
  ],
  "bytecode": "0x608060405234801561000f575f80fd5b506112b18061001d5f395ff3fe608060405234801561000f575f80fd5b506004361061004a575f3560e01c8063234c76d51461004e5780634e435daa1461007e5780638f2b91ea1461009a578063ed0f2e75146100cf575b5f80fd5b61006860048036038101906100639190610b8b565b610104565b6040516100759190610bec565b60405180910390f35b61009860048036038101906100939190610c05565b61013c565b005b6100b460048036038101906100af9190610b8b565b6102be565b6040516100c696959493929190610de0565b60405180910390f35b6100e960048036038101906100e49190610b8b565b610631565b6040516100fb96959493929190610de0565b60405180910390f35b5f805f836040516101159190610ea3565b9081526020016040518091039020600401805461013190610ee6565b905014159050919050565b5f808860405161014c9190610ea3565b9081526020016040518091039020600401805461016890610ee6565b9050146101aa576040517f08c379a00000000000000000000000000000000000000000000000000000000081526004016101a190610f60565b60405180910390fd5b5f6040518060c00160405280888152602001878152602001868152602001858152602001848152602001838152509050805f896040516101ea9190610ea3565b90815260200160405180910390205f820151815f01908161020b9190611124565b5060208201518160010190816102219190611124565b5060408201518160020190816102379190611124565b50606082015181600301908161024d9190611124565b5060808201518160040190816102639190611124565b5060a08201518160050190816102799190611124565b509050507f61d797131bb49468de135d0d68fea15a511ca6dadd1d5cbea33e01725bb568e4886040516102ac91906111f3565b60405180910390a15050505050505050565b5f818051602081018201805184825260208301602085012081835280955050505050505f91509050805f0180546102f490610ee6565b80601f016020809104026020016040519081016040528092919081815260200182805461032090610ee6565b801561036b5780601f106103425761010080835404028352916020019161036b565b820191905f5260205f20905b81548152906001019060200180831161034e57829003601f168201915b50505050509080600101805461038090610ee6565b80601f01602080910402602001604051908101604052809291908181526020018280546103ac90610ee6565b80156103f75780601f106103ce576101008083540402835291602001916103f7565b820191905f5260205f20905b8154815290600101906020018083116103da57829003601f168201915b50505050509080600201805461040c90610ee6565b80601f016020809104026020016040519081016040528092919081815260200182805461043890610ee6565b80156104835780601f1061045a57610100808354040283529160200191610483565b820191905f5260205f20905b81548152906001019060200180831161046657829003601f168201915b50505050509080600301805461049890610ee6565b80601f01602080910402602001604051908101604052809291908181526020018280546104c490610ee6565b801561050f5780601f106104e65761010080835404028352916020019161050f565b820191905f5260205f20905b8154815290600101906020018083116104f257829003601f168201915b50505050509080600401805461052490610ee6565b80601f016020809104026020016040519081016040528092919081815260200182805461055090610ee6565b801561059b5780601f106105725761010080835404028352916020019161059b565b820191905f5260205f20905b81548152906001019060200180831161057e57829003601f168201915b5050505050908060050180546105b090610ee6565b80601f01602080910402602001604051908101604052809291908181526020018280546105dc90610ee6565b80156106275780601f106105fe57610100808354040283529160200191610627565b820191905f5260205f20905b81548152906001019060200180831161060a57829003601f168201915b5050505050905086565b6060806060806060805f808860405161064a9190610ea3565b90815260200160405180910390206040518060c00160405290815f8201805461067290610ee6565b80601f016020809104026020016040519081016040528092919081815260200182805461069e90610ee6565b80156106e95780601f106106c0576101008083540402835291602001916106e9565b820191905f5260205f20905b8154815290600101906020018083116106cc57829003601f168201915b5050505050815260200160018201805461070290610ee6565b80601f016020809104026020016040519081016040528092919081815260200182805461072e90610ee6565b80156107795780601f1061075057610100808354040283529160200191610779565b820191905f5260205f20905b81548152906001019060200180831161075c57829003601f168201915b5050505050815260200160028201805461079290610ee6565b80601f01602080910402602001604051908101604052809291908181526020018280546107be90610ee6565b80156108095780601f106107e057610100808354040283529160200191610809565b820191905f5260205f20905b8154815290600101906020018083116107ec57829003601f168201915b5050505050815260200160038201805461082290610ee6565b80601f016020809104026020016040519081016040528092919081815260200182805461084e90610ee6565b80156108995780601f1061087057610100808354040283529160200191610899565b820191905f5260205f20905b81548152906001019060200180831161087c57829003601f168201915b505050505081526020016004820180546108b290610ee6565b80601f01602080910402602001604051908101604052809291908181526020018280546108de90610ee6565b80156109295780601f1061090057610100808354040283529160200191610929565b820191905f5260205f20905b81548152906001019060200180831161090c57829003601f168201915b5050505050815260200160058201805461094290610ee6565b80601f016020809104026020016040519081016040528092919081815260200182805461096e90610ee6565b80156109b95780601f10610990576101008083540402835291602001916109b9565b820191905f5260205f20905b81548152906001019060200180831161099c57829003601f168201915b50505050508152505090505f81608001515103610a0b576040517f08c379a0000000000000000000000000000000000000000000000000000000008152600401610a029061125d565b60405180910390fd5b8060200151815f01518260a001518360400151846060015185608001519650965096509650965096505091939550919395565b5f604051905090565b5f80fd5b5f80fd5b5f80fd5b5f80fd5b5f601f19601f8301169050919050565b7f4e487b71000000000000000000000000000000000000000000000000000000005f52604160045260245ffd5b610a9d82610a57565b810181811067ffffffffffffffff82111715610abc57610abb610a67565b5b80604052505050565b5f610ace610a3e565b9050610ada8282610a94565b919050565b5f67ffffffffffffffff821115610af957610af8610a67565b5b610b0282610a57565b9050602081019050919050565b828183375f83830152505050565b5f610b2f610b2a84610adf565b610ac5565b905082815260208101848484011115610b4b57610b4a610a53565b5b610b56848285610b0f565b509392505050565b5f82601f830112610b7257610b71610a4f565b5b8135610b82848260208601610b1d565b91505092915050565b5f60208284031215610ba057610b9f610a47565b5b5f82013567ffffffffffffffff811115610bbd57610bbc610a4b565b5b610bc984828501610b5e565b91505092915050565b5f8115159050919050565b610be681610bd2565b82525050565b5f602082019050610bff5f830184610bdd565b92915050565b5f805f805f805f60e0888a031215610c2057610c1f610a47565b5b5f88013567ffffffffffffffff811115610c3d57610c3c610a4b565b5b610c498a828b01610b5e565b975050602088013567ffffffffffffffff811115610c6a57610c69610a4b565b5b610c768a828b01610b5e565b965050604088013567ffffffffffffffff811115610c9757610c96610a4b565b5b610ca38a828b01610b5e565b955050606088013567ffffffffffffffff811115610cc457610cc3610a4b565b5b610cd08a828b01610b5e565b945050608088013567ffffffffffffffff811115610cf157610cf0610a4b565b5b610cfd8a828b01610b5e565b93505060a088013567ffffffffffffffff811115610d1e57610d1d610a4b565b5b610d2a8a828b01610b5e565b92505060c088013567ffffffffffffffff811115610d4b57610d4a610a4b565b5b610d578a828b01610b5e565b91505092959891949750929550565b5f81519050919050565b5f82825260208201905092915050565b5f5b83811015610d9d578082015181840152602081019050610d82565b5f8484015250505050565b5f610db282610d66565b610dbc8185610d70565b9350610dcc818560208601610d80565b610dd581610a57565b840191505092915050565b5f60c0820190508181035f830152610df88189610da8565b90508181036020830152610e0c8188610da8565b90508181036040830152610e208187610da8565b90508181036060830152610e348186610da8565b90508181036080830152610e488185610da8565b905081810360a0830152610e5c8184610da8565b9050979650505050505050565b5f81905092915050565b5f610e7d82610d66565b610e878185610e69565b9350610e97818560208601610d80565b80840191505092915050565b5f610eae8284610e73565b915081905092915050565b7f4e487b71000000000000000000000000000000000000000000000000000000005f52602260045260245ffd5b5f6002820490506001821680610efd57607f821691505b602082108103610f1057610f0f610eb9565b5b50919050565b7f436572746966696361746520616c7265616479206578697374730000000000005f82015250565b5f610f4a601a83610d70565b9150610f5582610f16565b602082019050919050565b5f6020820190508181035f830152610f7781610f3e565b9050919050565b5f819050815f5260205f209050919050565b5f6020601f8301049050919050565b5f82821b905092915050565b5f60088302610fda7fffffffffffffffffffffffffffffffffffffffffffffffffffffffffffffffff82610f9f565b610fe48683610f9f565b95508019841693508086168417925050509392505050565b5f819050919050565b5f819050919050565b5f61102861102361101e84610ffc565b611005565b610ffc565b9050919050565b5f819050919050565b6110418361100e565b61105561104d8261102f565b848454610fab565b825550505050565b5f90565b61106961105d565b611074818484611038565b505050565b5b818110156110975761108c5f82611061565b60018101905061107a565b5050565b601f8211156110dc576110ad81610f7e565b6110b684610f90565b810160208510156110c5578190505b6110d96110d185610f90565b830182611079565b50505b505050565b5f82821c905092915050565b5f6110fc5f19846008026110e1565b1980831691505092915050565b5f61111483836110ed565b9150826002028217905092915050565b61112d82610d66565b67ffffffffffffffff81111561114657611145610a67565b5b6111508254610ee6565b61115b82828561109b565b5f60209050601f83116001811461118c575f841561117a578287015190505b6111848582611109565b8655506111eb565b601f19841661119a86610f7e565b5f5b828110156111c15784890151825560018201915060208501945060208101905061119c565b868310156111de57848901516111da601f8916826110ed565b8355505b6001600288020188555050505b505050505050565b5f6020820190508181035f83015261120b8184610da8565b905092915050565b7f436572746966696361746520646f6573206e6f742065786973740000000000005f82015250565b5f611247601a83610d70565b915061125282611213565b602082019050919050565b5f6020820190508181035f8301526112748161123b565b905091905056fea264697066735822122087f60f620b4691e7f09e0726a1e0c771b12750439d71f125225695406d48f40964736f6c63430008140033",
  "immutableReferences": {},
  "source": "// SPDX-License-Identifier: MIT\r\npragma solidity ^0.8.20;\r\n\r\ncontract Certification {\r\n    struct Certificate {\r\n        string name;\r\n        string uid;\r\n        string coursename;\r\n        string orgname;\r\n        string ipfs_hash;\r\n        string description;\r\n    }\r\n\r\n    mapping(string => Certificate) public certificates;\r\n    event CertificateIssued(string certificate_id);\r\n\r\n    function generateCertificate(\r\n        string memory _certificate_id,\r\n        string memory _name,\r\n        string memory _uid,\r\n        string memory _coursename,\r\n        string memory _orgname,\r\n        string memory _ipfs_hash,\r\n        string memory _description\r\n    ) public {\r\n        require(\r\n            bytes(certificates[_certificate_id].ipfs_hash).length == 0,\r\n            \"Certificate already exists\"\r\n        );\r\n\r\n        Certificate memory cert = Certificate({\r\n            name: _name,\r\n            uid: _uid,\r\n            coursename: _coursename,\r\n            orgname: _orgname,\r\n            ipfs_hash: _ipfs_hash,\r\n            description: _description\r\n        });\r\n\r\n        certificates[_certificate_id] = cert;\r\n\r\n        emit CertificateIssued(_certificate_id);\r\n    }\r\n\r\n    function getCertificate(string memory _certificate_id) \r\n        public \r\n        view \r\n        returns (\r\n            string memory _uid, \r\n            string memory _name, \r\n            string memory _description, \r\n            string memory _coursename,\r\n            string memory _orgname, \r\n            string memory _ipfs_hash\r\n        ) \r\n    {\r\n        Certificate memory cert = certificates[_certificate_id];\r\n\r\n        require(\r\n            bytes(cert.ipfs_hash).length != 0, \r\n            \"Certificate does not exist\"\r\n        );\r\n\r\n        return (\r\n            cert.uid,\r\n            cert.name,\r\n            cert.description,\r\n            cert.coursename,\r\n            cert.orgname,\r\n            cert.ipfs_hash\r\n        );\r\n    }\r\n\r\n    function isVerified(string memory _certificate_id) public view returns (bool) {\r\n        return bytes(certificates[_certificate_id].ipfs_hash).length != 0;\r\n    }\r\n}\r\n",
  "sourcePath": "D:\\projects\\educhain\\new1\\contracts\\certification.sol",
  "compiler": {
    "name": "solc",
    "version": "0.8.20+commit.a1b79de6.Emscripten.clang"
  },
  "schemaVersion": "3.4.16",
  "updatedAt": "2024-08-31T06:06:21.826Z",
  "networkType": "ethereum",
  "devdoc": {
    "kind": "dev",
    "methods": {},
    "version": 1
  },
  "userdoc": {
    "kind": "user",
    "methods": {},
    "version": 1
  }
}