{
  "contractName": "DecentralizedCDN",
  "abi": [
    {
      "inputs": [],
      "stateMutability": "nonpayable",
      "type": "constructor"
    },
    {
      "anonymous": false,
      "inputs": [
        {
          "indexed": true,
          "internalType": "bytes32",
          "name": "contentId",
          "type": "bytes32"
        },
        {
          "indexed": true,
          "internalType": "address",
          "name": "uploader",
          "type": "address"
        },
        {
          "indexed": false,
          "internalType": "string",
          "name": "contentHash",
          "type": "string"
        }
      ],
      "name": "ContentUploaded",
      "type": "event"
    },
    {
      "anonymous": false,
      "inputs": [
        {
          "indexed": true,
          "internalType": "address",
          "name": "uploader",
          "type": "address"
        }
      ],
      "name": "UploaderApproved",
      "type": "event"
    },
    {
      "anonymous": false,
      "inputs": [
        {
          "indexed": true,
          "internalType": "address",
          "name": "uploader",
          "type": "address"
        }
      ],
      "name": "UploaderRevoked",
      "type": "event"
    },
    {
      "inputs": [],
      "name": "admin",
      "outputs": [
        {
          "internalType": "address",
          "name": "",
          "type": "address"
        }
      ],
      "stateMutability": "view",
      "type": "function",
      "constant": true
    },
    {
      "inputs": [
        {
          "internalType": "address",
          "name": "",
          "type": "address"
        }
      ],
      "name": "approvedUploaders",
      "outputs": [
        {
          "internalType": "bool",
          "name": "",
          "type": "bool"
        }
      ],
      "stateMutability": "view",
      "type": "function",
      "constant": true
    },
    {
      "inputs": [
        {
          "internalType": "bytes32",
          "name": "",
          "type": "bytes32"
        }
      ],
      "name": "contents",
      "outputs": [
        {
          "internalType": "address",
          "name": "uploader",
          "type": "address"
        },
        {
          "internalType": "string",
          "name": "contentHash",
          "type": "string"
        },
        {
          "internalType": "uint256",
          "name": "uploadTime",
          "type": "uint256"
        }
      ],
      "stateMutability": "view",
      "type": "function",
      "constant": true
    },
    {
      "inputs": [
        {
          "internalType": "address",
          "name": "_uploader",
          "type": "address"
        }
      ],
      "name": "approveUploader",
      "outputs": [],
      "stateMutability": "nonpayable",
      "type": "function"
    },
    {
      "inputs": [
        {
          "internalType": "address",
          "name": "_uploader",
          "type": "address"
        }
      ],
      "name": "revokeUploader",
      "outputs": [],
      "stateMutability": "nonpayable",
      "type": "function"
    },
    {
      "inputs": [
        {
          "internalType": "bytes32",
          "name": "_contentId",
          "type": "bytes32"
        },
        {
          "internalType": "string",
          "name": "_contentHash",
          "type": "string"
        }
      ],
      "name": "uploadContent",
      "outputs": [],
      "stateMutability": "nonpayable",
      "type": "function"
    },
    {
      "inputs": [
        {
          "internalType": "bytes32",
          "name": "_contentId",
          "type": "bytes32"
        }
      ],
      "name": "getContent",
      "outputs": [
        {
          "components": [
            {
              "internalType": "address",
              "name": "uploader",
              "type": "address"
            },
            {
              "internalType": "string",
              "name": "contentHash",
              "type": "string"
            },
            {
              "internalType": "uint256",
              "name": "uploadTime",
              "type": "uint256"
            }
          ],
          "internalType": "struct DecentralizedCDN.Content",
          "name": "",
          "type": "tuple"
        }
      ],
      "stateMutability": "view",
      "type": "function",
      "constant": true
    },
    {
      "inputs": [
        {
          "internalType": "address",
          "name": "_newAdmin",
          "type": "address"
        }
      ],
      "name": "changeAdmin",
      "outputs": [],
      "stateMutability": "nonpayable",
      "type": "function"
    }
  ],
  "bytecode": "0x608060405234801561000f575f80fd5b503360025f6101000a81548173ffffffffffffffffffffffffffffffffffffffff021916908373ffffffffffffffffffffffffffffffffffffffff1602179055506112058061005d5f395ff3fe608060405234801561000f575f80fd5b5060043610610086575f3560e01c80638f283970116100595780638f28397014610122578063f20ca12c1461013e578063f851a44014610170578063fa0438a91461018e57610086565b80632f060e3b1461008a57806346c8ecdc146100ba5780635cc15001146100d65780637a50925f14610106575b5f80fd5b6100a4600480360381019061009f91906109f2565b6101aa565b6040516100b19190610a37565b60405180910390f35b6100d460048036038101906100cf9190610ae4565b6101c7565b005b6100f060048036038101906100eb9190610b41565b610430565b6040516100fd9190610c6a565b60405180910390f35b610120600480360381019061011b91906109f2565b610548565b005b61013c600480360381019061013791906109f2565b610671565b005b61015860048036038101906101539190610b41565b610743565b60405161016793929190610cf0565b60405180910390f35b61017861080d565b6040516101859190610d2c565b60405180910390f35b6101a860048036038101906101a391906109f2565b610832565b005b6001602052805f5260405f205f915054906101000a900460ff1681565b60015f3373ffffffffffffffffffffffffffffffffffffffff1673ffffffffffffffffffffffffffffffffffffffff1681526020019081526020015f205f9054906101000a900460ff16610250576040517f08c379a000000000000000000000000000000000000000000000000000000000815260040161024790610d8f565b60405180910390fd5b5f73ffffffffffffffffffffffffffffffffffffffff165f808581526020019081526020015f205f015f9054906101000a900473ffffffffffffffffffffffffffffffffffffffff1673ffffffffffffffffffffffffffffffffffffffff16146102ef576040517f08c379a00000000000000000000000000000000000000000000000000000000081526004016102e690610df7565b60405180910390fd5b60405180606001604052803373ffffffffffffffffffffffffffffffffffffffff16815260200183838080601f0160208091040260200160405190810160405280939291908181526020018383808284375f81840152601f19601f820116905080830192505050505050508152602001428152505f808581526020019081526020015f205f820151815f015f6101000a81548173ffffffffffffffffffffffffffffffffffffffff021916908373ffffffffffffffffffffffffffffffffffffffff16021790555060208201518160010190816103cc919061103c565b50604082015181600201559050503373ffffffffffffffffffffffffffffffffffffffff16837fa7d4e13f558f1df2bdafabc3d8c0313c43510ea876f958f5d08452b4ab6482798484604051610423929190611145565b60405180910390a3505050565b61043861095b565b5f808381526020019081526020015f206040518060600160405290815f82015f9054906101000a900473ffffffffffffffffffffffffffffffffffffffff1673ffffffffffffffffffffffffffffffffffffffff1673ffffffffffffffffffffffffffffffffffffffff1681526020016001820180546104b790610e6f565b80601f01602080910402602001604051908101604052809291908181526020018280546104e390610e6f565b801561052e5780601f106105055761010080835404028352916020019161052e565b820191905f5260205f20905b81548152906001019060200180831161051157829003601f168201915b505050505081526020016002820154815250509050919050565b60025f9054906101000a900473ffffffffffffffffffffffffffffffffffffffff1673ffffffffffffffffffffffffffffffffffffffff163373ffffffffffffffffffffffffffffffffffffffff16146105d7576040517f08c379a00000000000000000000000000000000000000000000000000000000081526004016105ce906111b1565b60405180910390fd5b5f60015f8373ffffffffffffffffffffffffffffffffffffffff1673ffffffffffffffffffffffffffffffffffffffff1681526020019081526020015f205f6101000a81548160ff0219169083151502179055508073ffffffffffffffffffffffffffffffffffffffff167f33bb9ac9db4b75554f06c325e5be918236166b69b76b0e7001d56232c94140c460405160405180910390a250565b60025f9054906101000a900473ffffffffffffffffffffffffffffffffffffffff1673ffffffffffffffffffffffffffffffffffffffff163373ffffffffffffffffffffffffffffffffffffffff1614610700576040517f08c379a00000000000000000000000000000000000000000000000000000000081526004016106f7906111b1565b60405180910390fd5b8060025f6101000a81548173ffffffffffffffffffffffffffffffffffffffff021916908373ffffffffffffffffffffffffffffffffffffffff16021790555050565b5f602052805f5260405f205f91509050805f015f9054906101000a900473ffffffffffffffffffffffffffffffffffffffff169080600101805461078690610e6f565b80601f01602080910402602001604051908101604052809291908181526020018280546107b290610e6f565b80156107fd5780601f106107d4576101008083540402835291602001916107fd565b820191905f5260205f20905b8154815290600101906020018083116107e057829003601f168201915b5050505050908060020154905083565b60025f9054906101000a900473ffffffffffffffffffffffffffffffffffffffff1681565b60025f9054906101000a900473ffffffffffffffffffffffffffffffffffffffff1673ffffffffffffffffffffffffffffffffffffffff163373ffffffffffffffffffffffffffffffffffffffff16146108c1576040517f08c379a00000000000000000000000000000000000000000000000000000000081526004016108b8906111b1565b60405180910390fd5b6001805f8373ffffffffffffffffffffffffffffffffffffffff1673ffffffffffffffffffffffffffffffffffffffff1681526020019081526020015f205f6101000a81548160ff0219169083151502179055508073ffffffffffffffffffffffffffffffffffffffff167f92bcc352f070d37245ce58ab7ede121d45b283f2f9ca1daebbf317284012133960405160405180910390a250565b60405180606001604052805f73ffffffffffffffffffffffffffffffffffffffff168152602001606081526020015f81525090565b5f80fd5b5f80fd5b5f73ffffffffffffffffffffffffffffffffffffffff82169050919050565b5f6109c182610998565b9050919050565b6109d1816109b7565b81146109db575f80fd5b50565b5f813590506109ec816109c8565b92915050565b5f60208284031215610a0757610a06610990565b5b5f610a14848285016109de565b91505092915050565b5f8115159050919050565b610a3181610a1d565b82525050565b5f602082019050610a4a5f830184610a28565b92915050565b5f819050919050565b610a6281610a50565b8114610a6c575f80fd5b50565b5f81359050610a7d81610a59565b92915050565b5f80fd5b5f80fd5b5f80fd5b5f8083601f840112610aa457610aa3610a83565b5b8235905067ffffffffffffffff811115610ac157610ac0610a87565b5b602083019150836001820283011115610add57610adc610a8b565b5b9250929050565b5f805f60408486031215610afb57610afa610990565b5b5f610b0886828701610a6f565b935050602084013567ffffffffffffffff811115610b2957610b28610994565b5b610b3586828701610a8f565b92509250509250925092565b5f60208284031215610b5657610b55610990565b5b5f610b6384828501610a6f565b91505092915050565b610b75816109b7565b82525050565b5f81519050919050565b5f82825260208201905092915050565b5f5b83811015610bb2578082015181840152602081019050610b97565b5f8484015250505050565b5f601f19601f8301169050919050565b5f610bd782610b7b565b610be18185610b85565b9350610bf1818560208601610b95565b610bfa81610bbd565b840191505092915050565b5f819050919050565b610c1781610c05565b82525050565b5f606083015f830151610c325f860182610b6c565b5060208301518482036020860152610c4a8282610bcd565b9150506040830151610c5f6040860182610c0e565b508091505092915050565b5f6020820190508181035f830152610c828184610c1d565b905092915050565b610c93816109b7565b82525050565b5f82825260208201905092915050565b5f610cb382610b7b565b610cbd8185610c99565b9350610ccd818560208601610b95565b610cd681610bbd565b840191505092915050565b610cea81610c05565b82525050565b5f606082019050610d035f830186610c8a565b8181036020830152610d158185610ca9565b9050610d246040830184610ce1565b949350505050565b5f602082019050610d3f5f830184610c8a565b92915050565b7f4e6f7420616e20617070726f7665642075706c6f6164657200000000000000005f82015250565b5f610d79601883610c99565b9150610d8482610d45565b602082019050919050565b5f6020820190508181035f830152610da681610d6d565b9050919050565b7f436f6e74656e7420494420616c726561647920657869737473000000000000005f82015250565b5f610de1601983610c99565b9150610dec82610dad565b602082019050919050565b5f6020820190508181035f830152610e0e81610dd5565b9050919050565b7f4e487b71000000000000000000000000000000000000000000000000000000005f52604160045260245ffd5b7f4e487b71000000000000000000000000000000000000000000000000000000005f52602260045260245ffd5b5f6002820490506001821680610e8657607f821691505b602082108103610e9957610e98610e42565b5b50919050565b5f819050815f5260205f209050919050565b5f6020601f8301049050919050565b5f82821b905092915050565b5f60088302610efb7fffffffffffffffffffffffffffffffffffffffffffffffffffffffffffffffff82610ec0565b610f058683610ec0565b95508019841693508086168417925050509392505050565b5f819050919050565b5f610f40610f3b610f3684610c05565b610f1d565b610c05565b9050919050565b5f819050919050565b610f5983610f26565b610f6d610f6582610f47565b848454610ecc565b825550505050565b5f90565b610f81610f75565b610f8c818484610f50565b505050565b5b81811015610faf57610fa45f82610f79565b600181019050610f92565b5050565b601f821115610ff457610fc581610e9f565b610fce84610eb1565b81016020851015610fdd578190505b610ff1610fe985610eb1565b830182610f91565b50505b505050565b5f82821c905092915050565b5f6110145f1984600802610ff9565b1980831691505092915050565b5f61102c8383611005565b9150826002028217905092915050565b61104582610b7b565b67ffffffffffffffff81111561105e5761105d610e15565b5b6110688254610e6f565b611073828285610fb3565b5f60209050601f8311600181146110a4575f8415611092578287015190505b61109c8582611021565b865550611103565b601f1984166110b286610e9f565b5f5b828110156110d9578489015182556001820191506020850194506020810190506110b4565b868310156110f657848901516110f2601f891682611005565b8355505b6001600288020188555050505b505050505050565b828183375f83830152505050565b5f6111248385610c99565b935061113183858461110b565b61113a83610bbd565b840190509392505050565b5f6020820190508181035f83015261115e818486611119565b90509392505050565b7f4e6f7420617574686f72697a65640000000000000000000000000000000000005f82015250565b5f61119b600e83610c99565b91506111a682611167565b602082019050919050565b5f6020820190508181035f8301526111c88161118f565b905091905056fea2646970667358221220da24dd538d826ec0c381a2b812fc1686d8c63f75b78e323b7e7a5d0f4f28ca6864736f6c63430008140033",
  "immutableReferences": {},
  "source": "// SPDX-License-Identifier: MIT\r\npragma solidity ^0.8.20;\r\n\r\ncontract DecentralizedCDN {\r\n\r\n    struct Content {\r\n        address uploader;\r\n        string contentHash; // Hash of the content stored on a decentralized storage network\r\n        uint256 uploadTime;\r\n    }\r\n\r\n    mapping(bytes32 => Content) public contents; // Mapping from content ID to Content\r\n    mapping(address => bool) public approvedUploaders; // Mapping to manage approved uploaders\r\n    address public admin; // Admin address for managing uploaders\r\n\r\n    event ContentUploaded(bytes32 indexed contentId, address indexed uploader, string contentHash);\r\n    event UploaderApproved(address indexed uploader);\r\n    event UploaderRevoked(address indexed uploader);\r\n\r\n    modifier onlyAdmin() {\r\n        require(msg.sender == admin, \"Not authorized\");\r\n        _;\r\n    }\r\n\r\n    modifier onlyApprovedUploader() {\r\n        require(approvedUploaders[msg.sender], \"Not an approved uploader\");\r\n        _;\r\n    }\r\n\r\n    constructor() {\r\n        admin = msg.sender; // Set the contract deployer as the admin\r\n    }\r\n\r\n    // Function to approve an uploader\r\n    function approveUploader(address _uploader) external onlyAdmin {\r\n        approvedUploaders[_uploader] = true;\r\n        emit UploaderApproved(_uploader);\r\n    }\r\n\r\n    // Function to revoke an uploader\r\n    function revokeUploader(address _uploader) external onlyAdmin {\r\n        approvedUploaders[_uploader] = false;\r\n        emit UploaderRevoked(_uploader);\r\n    }\r\n\r\n    // Function to upload content\r\n    function uploadContent(bytes32 _contentId, string calldata _contentHash) external onlyApprovedUploader {\r\n        require(contents[_contentId].uploader == address(0), \"Content ID already exists\");\r\n        contents[_contentId] = Content({\r\n            uploader: msg.sender,\r\n            contentHash: _contentHash,\r\n            uploadTime: block.timestamp\r\n        });\r\n        emit ContentUploaded(_contentId, msg.sender, _contentHash);\r\n    }\r\n\r\n    // Function to get content details\r\n    function getContent(bytes32 _contentId) external view returns (Content memory) {\r\n        return contents[_contentId];\r\n    }\r\n\r\n    // Function to change admin\r\n    function changeAdmin(address _newAdmin) external onlyAdmin {\r\n        admin = _newAdmin;\r\n    }\r\n}\r\n",
  "sourcePath": "D:\\projects\\educhain\\new1\\contracts\\dcDN.sol",
  "compiler": {
    "name": "solc",
    "version": "0.8.20+commit.a1b79de6.Emscripten.clang"
  },
  "schemaVersion": "3.4.16",
  "updatedAt": "2024-08-31T06:06:21.838Z",
  "networkType": "ethereum",
  "devdoc": {
    "kind": "dev",
    "methods": {},
    "version": 1
  },
  "userdoc": {
    "kind": "user",
    "methods": {},
    "version": 1
  }
}