{
  "contractName": "NFTMarketplace",
  "abi": [
    {
      "inputs": [],
      "stateMutability": "nonpayable",
      "type": "constructor"
    },
    {
      "inputs": [
        {
          "internalType": "address",
          "name": "sender",
          "type": "address"
        },
        {
          "internalType": "uint256",
          "name": "tokenId",
          "type": "uint256"
        },
        {
          "internalType": "address",
          "name": "owner",
          "type": "address"
        }
      ],
      "name": "ERC721IncorrectOwner",
      "type": "error"
    },
    {
      "inputs": [
        {
          "internalType": "address",
          "name": "operator",
          "type": "address"
        },
        {
          "internalType": "uint256",
          "name": "tokenId",
          "type": "uint256"
        }
      ],
      "name": "ERC721InsufficientApproval",
      "type": "error"
    },
    {
      "inputs": [
        {
          "internalType": "address",
          "name": "approver",
          "type": "address"
        }
      ],
      "name": "ERC721InvalidApprover",
      "type": "error"
    },
    {
      "inputs": [
        {
          "internalType": "address",
          "name": "operator",
          "type": "address"
        }
      ],
      "name": "ERC721InvalidOperator",
      "type": "error"
    },
    {
      "inputs": [
        {
          "internalType": "address",
          "name": "owner",
          "type": "address"
        }
      ],
      "name": "ERC721InvalidOwner",
      "type": "error"
    },
    {
      "inputs": [
        {
          "internalType": "address",
          "name": "receiver",
          "type": "address"
        }
      ],
      "name": "ERC721InvalidReceiver",
      "type": "error"
    },
    {
      "inputs": [
        {
          "internalType": "address",
          "name": "sender",
          "type": "address"
        }
      ],
      "name": "ERC721InvalidSender",
      "type": "error"
    },
    {
      "inputs": [
        {
          "internalType": "uint256",
          "name": "tokenId",
          "type": "uint256"
        }
      ],
      "name": "ERC721NonexistentToken",
      "type": "error"
    },
    {
      "anonymous": false,
      "inputs": [
        {
          "indexed": true,
          "internalType": "address",
          "name": "owner",
          "type": "address"
        },
        {
          "indexed": true,
          "internalType": "address",
          "name": "approved",
          "type": "address"
        },
        {
          "indexed": true,
          "internalType": "uint256",
          "name": "tokenId",
          "type": "uint256"
        }
      ],
      "name": "Approval",
      "type": "event"
    },
    {
      "anonymous": false,
      "inputs": [
        {
          "indexed": true,
          "internalType": "address",
          "name": "owner",
          "type": "address"
        },
        {
          "indexed": true,
          "internalType": "address",
          "name": "operator",
          "type": "address"
        },
        {
          "indexed": false,
          "internalType": "bool",
          "name": "approved",
          "type": "bool"
        }
      ],
      "name": "ApprovalForAll",
      "type": "event"
    },
    {
      "anonymous": false,
      "inputs": [
        {
          "indexed": false,
          "internalType": "uint256",
          "name": "_fromTokenId",
          "type": "uint256"
        },
        {
          "indexed": false,
          "internalType": "uint256",
          "name": "_toTokenId",
          "type": "uint256"
        }
      ],
      "name": "BatchMetadataUpdate",
      "type": "event"
    },
    {
      "anonymous": false,
      "inputs": [
        {
          "indexed": false,
          "internalType": "uint256",
          "name": "_tokenId",
          "type": "uint256"
        }
      ],
      "name": "MetadataUpdate",
      "type": "event"
    },
    {
      "anonymous": false,
      "inputs": [
        {
          "indexed": true,
          "internalType": "uint256",
          "name": "tokenId",
          "type": "uint256"
        },
        {
          "indexed": true,
          "internalType": "address",
          "name": "seller",
          "type": "address"
        },
        {
          "indexed": false,
          "internalType": "uint256",
          "name": "price",
          "type": "uint256"
        }
      ],
      "name": "TokenListedSuccess",
      "type": "event"
    },
    {
      "anonymous": false,
      "inputs": [
        {
          "indexed": true,
          "internalType": "address",
          "name": "from",
          "type": "address"
        },
        {
          "indexed": true,
          "internalType": "address",
          "name": "to",
          "type": "address"
        },
        {
          "indexed": true,
          "internalType": "uint256",
          "name": "tokenId",
          "type": "uint256"
        }
      ],
      "name": "Transfer",
      "type": "event"
    },
    {
      "inputs": [
        {
          "internalType": "address",
          "name": "to",
          "type": "address"
        },
        {
          "internalType": "uint256",
          "name": "tokenId",
          "type": "uint256"
        }
      ],
      "name": "approve",
      "outputs": [],
      "stateMutability": "nonpayable",
      "type": "function"
    },
    {
      "inputs": [
        {
          "internalType": "address",
          "name": "owner",
          "type": "address"
        }
      ],
      "name": "balanceOf",
      "outputs": [
        {
          "internalType": "uint256",
          "name": "",
          "type": "uint256"
        }
      ],
      "stateMutability": "view",
      "type": "function",
      "constant": true
    },
    {
      "inputs": [
        {
          "internalType": "uint256",
          "name": "tokenId",
          "type": "uint256"
        }
      ],
      "name": "getApproved",
      "outputs": [
        {
          "internalType": "address",
          "name": "",
          "type": "address"
        }
      ],
      "stateMutability": "view",
      "type": "function",
      "constant": true
    },
    {
      "inputs": [
        {
          "internalType": "address",
          "name": "owner",
          "type": "address"
        },
        {
          "internalType": "address",
          "name": "operator",
          "type": "address"
        }
      ],
      "name": "isApprovedForAll",
      "outputs": [
        {
          "internalType": "bool",
          "name": "",
          "type": "bool"
        }
      ],
      "stateMutability": "view",
      "type": "function",
      "constant": true
    },
    {
      "inputs": [],
      "name": "listPrice",
      "outputs": [
        {
          "internalType": "uint256",
          "name": "",
          "type": "uint256"
        }
      ],
      "stateMutability": "view",
      "type": "function",
      "constant": true
    },
    {
      "inputs": [],
      "name": "name",
      "outputs": [
        {
          "internalType": "string",
          "name": "",
          "type": "string"
        }
      ],
      "stateMutability": "view",
      "type": "function",
      "constant": true
    },
    {
      "inputs": [],
      "name": "owner",
      "outputs": [
        {
          "internalType": "address payable",
          "name": "",
          "type": "address"
        }
      ],
      "stateMutability": "view",
      "type": "function",
      "constant": true
    },
    {
      "inputs": [
        {
          "internalType": "uint256",
          "name": "tokenId",
          "type": "uint256"
        }
      ],
      "name": "ownerOf",
      "outputs": [
        {
          "internalType": "address",
          "name": "",
          "type": "address"
        }
      ],
      "stateMutability": "view",
      "type": "function",
      "constant": true
    },
    {
      "inputs": [
        {
          "internalType": "address",
          "name": "from",
          "type": "address"
        },
        {
          "internalType": "address",
          "name": "to",
          "type": "address"
        },
        {
          "internalType": "uint256",
          "name": "tokenId",
          "type": "uint256"
        }
      ],
      "name": "safeTransferFrom",
      "outputs": [],
      "stateMutability": "nonpayable",
      "type": "function"
    },
    {
      "inputs": [
        {
          "internalType": "address",
          "name": "from",
          "type": "address"
        },
        {
          "internalType": "address",
          "name": "to",
          "type": "address"
        },
        {
          "internalType": "uint256",
          "name": "tokenId",
          "type": "uint256"
        },
        {
          "internalType": "bytes",
          "name": "data",
          "type": "bytes"
        }
      ],
      "name": "safeTransferFrom",
      "outputs": [],
      "stateMutability": "nonpayable",
      "type": "function"
    },
    {
      "inputs": [
        {
          "internalType": "address",
          "name": "operator",
          "type": "address"
        },
        {
          "internalType": "bool",
          "name": "approved",
          "type": "bool"
        }
      ],
      "name": "setApprovalForAll",
      "outputs": [],
      "stateMutability": "nonpayable",
      "type": "function"
    },
    {
      "inputs": [
        {
          "internalType": "bytes4",
          "name": "interfaceId",
          "type": "bytes4"
        }
      ],
      "name": "supportsInterface",
      "outputs": [
        {
          "internalType": "bool",
          "name": "",
          "type": "bool"
        }
      ],
      "stateMutability": "view",
      "type": "function",
      "constant": true
    },
    {
      "inputs": [],
      "name": "symbol",
      "outputs": [
        {
          "internalType": "string",
          "name": "",
          "type": "string"
        }
      ],
      "stateMutability": "view",
      "type": "function",
      "constant": true
    },
    {
      "inputs": [
        {
          "internalType": "uint256",
          "name": "tokenId",
          "type": "uint256"
        }
      ],
      "name": "tokenURI",
      "outputs": [
        {
          "internalType": "string",
          "name": "",
          "type": "string"
        }
      ],
      "stateMutability": "view",
      "type": "function",
      "constant": true
    },
    {
      "inputs": [
        {
          "internalType": "address",
          "name": "from",
          "type": "address"
        },
        {
          "internalType": "address",
          "name": "to",
          "type": "address"
        },
        {
          "internalType": "uint256",
          "name": "tokenId",
          "type": "uint256"
        }
      ],
      "name": "transferFrom",
      "outputs": [],
      "stateMutability": "nonpayable",
      "type": "function"
    },
    {
      "inputs": [
        {
          "internalType": "uint256",
          "name": "_listPrice",
          "type": "uint256"
        }
      ],
      "name": "updateListPrice",
      "outputs": [],
      "stateMutability": "nonpayable",
      "type": "function"
    },
    {
      "inputs": [],
      "name": "getListPrice",
      "outputs": [
        {
          "internalType": "uint256",
          "name": "",
          "type": "uint256"
        }
      ],
      "stateMutability": "view",
      "type": "function",
      "constant": true
    },
    {
      "inputs": [
        {
          "internalType": "string",
          "name": "tokenURI",
          "type": "string"
        },
        {
          "internalType": "uint256",
          "name": "price",
          "type": "uint256"
        }
      ],
      "name": "createToken",
      "outputs": [
        {
          "internalType": "uint256",
          "name": "",
          "type": "uint256"
        }
      ],
      "stateMutability": "payable",
      "type": "function",
      "payable": true
    },
    {
      "inputs": [],
      "name": "getAllNFTs",
      "outputs": [
        {
          "components": [
            {
              "internalType": "uint256",
              "name": "price",
              "type": "uint256"
            },
            {
              "internalType": "bool",
              "name": "currentlyListed",
              "type": "bool"
            }
          ],
          "internalType": "struct NFTMarketplace.ListedToken[]",
          "name": "",
          "type": "tuple[]"
        }
      ],
      "stateMutability": "view",
      "type": "function",
      "constant": true
    },
    {
      "inputs": [],
      "name": "getMyNFTs",
      "outputs": [
        {
          "components": [
            {
              "internalType": "uint256",
              "name": "price",
              "type": "uint256"
            },
            {
              "internalType": "bool",
              "name": "currentlyListed",
              "type": "bool"
            }
          ],
          "internalType": "struct NFTMarketplace.ListedToken[]",
          "name": "",
          "type": "tuple[]"
        }
      ],
      "stateMutability": "view",
      "type": "function",
      "constant": true
    },
    {
      "inputs": [
        {
          "internalType": "uint256",
          "name": "tokenId",
          "type": "uint256"
        }
      ],
      "name": "executeSale",
      "outputs": [],
      "stateMutability": "payable",
      "type": "function",
      "payable": true
    }
  ],
  "bytecode": "0x6080604052662386f26fc100006009553480156200001b575f80fd5b506040518060400160405280600e81526020017f4e46544d61726b6574706c6163650000000000000000000000000000000000008152506040518060400160405280600481526020017f4e46544d00000000000000000000000000000000000000000000000000000000815250815f908162000098919062000357565b508060019081620000aa919062000357565b5050503360075f6101000a81548173ffffffffffffffffffffffffffffffffffffffff021916908373ffffffffffffffffffffffffffffffffffffffff1602179055506200043b565b5f81519050919050565b7f4e487b71000000000000000000000000000000000000000000000000000000005f52604160045260245ffd5b7f4e487b71000000000000000000000000000000000000000000000000000000005f52602260045260245ffd5b5f60028204905060018216806200016f57607f821691505b6020821081036200018557620001846200012a565b5b50919050565b5f819050815f5260205f209050919050565b5f6020601f8301049050919050565b5f82821b905092915050565b5f60088302620001e97fffffffffffffffffffffffffffffffffffffffffffffffffffffffffffffffff82620001ac565b620001f58683620001ac565b95508019841693508086168417925050509392505050565b5f819050919050565b5f819050919050565b5f6200023f6200023962000233846200020d565b62000216565b6200020d565b9050919050565b5f819050919050565b6200025a836200021f565b62000272620002698262000246565b848454620001b8565b825550505050565b5f90565b620002886200027a565b620002958184846200024f565b505050565b5b81811015620002bc57620002b05f826200027e565b6001810190506200029b565b5050565b601f8211156200030b57620002d5816200018b565b620002e0846200019d565b81016020851015620002f0578190505b62000308620002ff856200019d565b8301826200029a565b50505b505050565b5f82821c905092915050565b5f6200032d5f198460080262000310565b1980831691505092915050565b5f6200034783836200031c565b9150826002028217905092915050565b6200036282620000f3565b67ffffffffffffffff8111156200037e576200037d620000fd565b5b6200038a825462000157565b62000397828285620002c0565b5f60209050601f831160018114620003cd575f8415620003b8578287015190505b620003c485826200033a565b86555062000433565b601f198416620003dd866200018b565b5f5b828110156200040657848901518255600182019150602085019450602081019050620003df565b8683101562000426578489015162000422601f8916826200031c565b8355505b6001600288020188555050505b505050505050565b6130ca80620004495f395ff3fe608060405260043610610129575f3560e01c806370a08231116100aa578063a22cb4651161006e578063a22cb465146103dd578063b88d4fde14610405578063c322579c1461042d578063c87b56dd14610455578063e0391b0914610491578063e985e9c5146104bb57610129565b806370a082311461030157806372b3b6201461033d5780638da5cb5b1461036d57806395d89b41146103975780639b1225c4146103c157610129565b806342842e0e116100f157806342842e0e1461021f578063629cb2e4146102475780636352211e1461027157806368f1945f146102ad5780636eb588d9146102d757610129565b806301ffc9a71461012d57806306fdde0314610169578063081812fc14610193578063095ea7b3146101cf57806323b872dd146101f7575b5f80fd5b348015610138575f80fd5b50610153600480360381019061014e919061221e565b6104f7565b6040516101609190612263565b60405180910390f35b348015610174575f80fd5b5061017d610557565b60405161018a9190612306565b60405180910390f35b34801561019e575f80fd5b506101b960048036038101906101b49190612359565b6105e6565b6040516101c691906123c3565b60405180910390f35b3480156101da575f80fd5b506101f560048036038101906101f09190612406565b610601565b005b348015610202575f80fd5b5061021d60048036038101906102189190612444565b610617565b005b34801561022a575f80fd5b5061024560048036038101906102409190612444565b610716565b005b348015610252575f80fd5b5061025b610735565b6040516102689190612587565b60405180910390f35b34801561027c575f80fd5b5061029760048036038101906102929190612359565b610924565b6040516102a491906123c3565b60405180910390f35b3480156102b8575f80fd5b506102c1610935565b6040516102ce91906125b6565b60405180910390f35b3480156102e2575f80fd5b506102eb61093e565b6040516102f891906125b6565b60405180910390f35b34801561030c575f80fd5b50610327600480360381019061032291906125cf565b610944565b60405161033491906125b6565b60405180910390f35b61035760048036038101906103529190612726565b6109fa565b60405161036491906125b6565b60405180910390f35b348015610378575f80fd5b50610381610ac3565b60405161038e91906127a0565b60405180910390f35b3480156103a2575f80fd5b506103ab610ae8565b6040516103b89190612306565b60405180910390f35b6103db60048036038101906103d69190612359565b610b78565b005b3480156103e8575f80fd5b5061040360048036038101906103fe91906127e3565b610cb3565b005b348015610410575f80fd5b5061042b600480360381019061042691906128bf565b610cc9565b005b348015610438575f80fd5b50610453600480360381019061044e9190612359565b610ce6565b005b348015610460575f80fd5b5061047b60048036038101906104769190612359565b610d7f565b6040516104889190612306565b60405180910390f35b34801561049c575f80fd5b506104a5610e8a565b6040516104b29190612587565b60405180910390f35b3480156104c6575f80fd5b506104e160048036038101906104dc919061293f565b610ff8565b6040516104ee9190612263565b60405180910390f35b5f634906490660e01b7bffffffffffffffffffffffffffffffffffffffffffffffffffffffff1916827bffffffffffffffffffffffffffffffffffffffffffffffffffffffff19161480610550575061054f82611086565b5b9050919050565b60605f8054610565906129aa565b80601f0160208091040260200160405190810160405280929190818152602001828054610591906129aa565b80156105dc5780601f106105b3576101008083540402835291602001916105dc565b820191905f5260205f20905b8154815290600101906020018083116105bf57829003601f168201915b5050505050905090565b5f6105f082611167565b506105fa826111ed565b9050919050565b610613828261060e611226565b61122d565b5050565b5f73ffffffffffffffffffffffffffffffffffffffff168273ffffffffffffffffffffffffffffffffffffffff1603610687575f6040517f64a0ae9200000000000000000000000000000000000000000000000000000000815260040161067e91906123c3565b60405180910390fd5b5f61069a8383610695611226565b61123f565b90508373ffffffffffffffffffffffffffffffffffffffff168173ffffffffffffffffffffffffffffffffffffffff1614610710578382826040517f64283d7b000000000000000000000000000000000000000000000000000000008152600401610707939291906129da565b60405180910390fd5b50505050565b61073083838360405180602001604052805f815250610cc9565b505050565b60605f610742600861144a565b90505f80600190505b8281116107dd575f600a5f8381526020019081526020015f2090503373ffffffffffffffffffffffffffffffffffffffff1661078683610924565b73ffffffffffffffffffffffffffffffffffffffff1614806107b55750806001015f9054906101000a900460ff165b156107c95782806107c590612a3c565b9350505b5080806107d590612a3c565b91505061074b565b505f8167ffffffffffffffff8111156107f9576107f8612602565b5b60405190808252806020026020018201604052801561083257816020015b61081f61219e565b8152602001906001900390816108175790505b5090505f80600190505b848111610919575f600a5f8381526020019081526020015f2090503373ffffffffffffffffffffffffffffffffffffffff1661087783610924565b73ffffffffffffffffffffffffffffffffffffffff1614806108a65750806001015f9054906101000a900460ff165b1561090557806040518060400160405290815f8201548152602001600182015f9054906101000a900460ff1615151515815250508484806108e690612a3c565b9550815181106108f9576108f8612a83565b5b60200260200101819052505b50808061091190612a3c565b91505061083c565b508194505050505090565b5f61092e82611167565b9050919050565b5f600954905090565b60095481565b5f8073ffffffffffffffffffffffffffffffffffffffff168273ffffffffffffffffffffffffffffffffffffffff16036109b5575f6040517f89c62b640000000000000000000000000000000000000000000000000000000081526004016109ac91906123c3565b60405180910390fd5b60035f8373ffffffffffffffffffffffffffffffffffffffff1673ffffffffffffffffffffffffffffffffffffffff1681526020019081526020015f20549050919050565b5f600954821015610a40576040517f08c379a0000000000000000000000000000000000000000000000000000000008152600401610a3790612b20565b60405180910390fd5b6009543414610a84576040517f08c379a0000000000000000000000000000000000000000000000000000000008152600401610a7b90612b88565b60405180910390fd5b610a8e6008611456565b5f610a99600861144a565b9050610aa5338261146a565b610aaf8185611487565b610ab981846114e1565b8091505092915050565b60075f9054906101000a900473ffffffffffffffffffffffffffffffffffffffff1681565b606060018054610af7906129aa565b80601f0160208091040260200160405190810160405280929190818152602001828054610b23906129aa565b8015610b6e5780601f10610b4557610100808354040283529160200191610b6e565b820191905f5260205f20905b815481529060010190602001808311610b5157829003601f168201915b5050505050905090565b5f600a5f8381526020019081526020015f2090505f815f01549050803414610bd5576040517f08c379a0000000000000000000000000000000000000000000000000000000008152600401610bcc90612bf0565b60405180910390fd5b5f826001015f6101000a81548160ff021916908315150217905550610bfb303385611592565b60075f9054906101000a900473ffffffffffffffffffffffffffffffffffffffff1673ffffffffffffffffffffffffffffffffffffffff166108fc60095490811502906040515f60405180830381858888f19350505050158015610c61573d5f803e3d5ffd5b50610c6b83610924565b73ffffffffffffffffffffffffffffffffffffffff166108fc8290811502906040515f60405180830381858888f19350505050158015610cad573d5f803e3d5ffd5b50505050565b610cc5610cbe611226565b83836116fa565b5050565b610cd4848484610617565b610ce084848484611863565b50505050565b60075f9054906101000a900473ffffffffffffffffffffffffffffffffffffffff1673ffffffffffffffffffffffffffffffffffffffff163373ffffffffffffffffffffffffffffffffffffffff1614610d75576040517f08c379a0000000000000000000000000000000000000000000000000000000008152600401610d6c90612c7e565b60405180910390fd5b8060098190555050565b6060610d8a82611167565b505f60065f8481526020019081526020015f208054610da8906129aa565b80601f0160208091040260200160405190810160405280929190818152602001828054610dd4906129aa565b8015610e1f5780601f10610df657610100808354040283529160200191610e1f565b820191905f5260205f20905b815481529060010190602001808311610e0257829003601f168201915b505050505090505f610e2f611a15565b90505f815103610e43578192505050610e85565b5f82511115610e77578082604051602001610e5f929190612cd6565b60405160208183030381529060405292505050610e85565b610e8084611a2b565b925050505b919050565b60605f610e97600861144a565b90505f80600190505b828111610eef57600a5f8281526020019081526020015f206001015f9054906101000a900460ff1615610edc578180610ed890612a3c565b9250505b8080610ee790612a3c565b915050610ea0565b505f8167ffffffffffffffff811115610f0b57610f0a612602565b5b604051908082528060200260200182016040528015610f4457816020015b610f3161219e565b815260200190600190039081610f295790505b5090505f80600190505b848111610fed575f600a5f8381526020019081526020015f209050806001015f9054906101000a900460ff1615610fd957806040518060400160405290815f8201548152602001600182015f9054906101000a900460ff161515151581525050848480610fba90612a3c565b955081518110610fcd57610fcc612a83565b5b60200260200101819052505b508080610fe590612a3c565b915050610f4e565b508194505050505090565b5f60055f8473ffffffffffffffffffffffffffffffffffffffff1673ffffffffffffffffffffffffffffffffffffffff1681526020019081526020015f205f8373ffffffffffffffffffffffffffffffffffffffff1673ffffffffffffffffffffffffffffffffffffffff1681526020019081526020015f205f9054906101000a900460ff16905092915050565b5f7f80ac58cd000000000000000000000000000000000000000000000000000000007bffffffffffffffffffffffffffffffffffffffffffffffffffffffff1916827bffffffffffffffffffffffffffffffffffffffffffffffffffffffff1916148061115057507f5b5e139f000000000000000000000000000000000000000000000000000000007bffffffffffffffffffffffffffffffffffffffffffffffffffffffff1916827bffffffffffffffffffffffffffffffffffffffffffffffffffffffff1916145b80611160575061115f82611a91565b5b9050919050565b5f8061117283611afa565b90505f73ffffffffffffffffffffffffffffffffffffffff168173ffffffffffffffffffffffffffffffffffffffff16036111e457826040517f7e2732890000000000000000000000000000000000000000000000000000000081526004016111db91906125b6565b60405180910390fd5b80915050919050565b5f60045f8381526020019081526020015f205f9054906101000a900473ffffffffffffffffffffffffffffffffffffffff169050919050565b5f33905090565b61123a8383836001611b33565b505050565b5f8061124a84611afa565b90505f73ffffffffffffffffffffffffffffffffffffffff168373ffffffffffffffffffffffffffffffffffffffff161461128b5761128a818486611cf2565b5b5f73ffffffffffffffffffffffffffffffffffffffff168173ffffffffffffffffffffffffffffffffffffffff1614611316576112ca5f855f80611b33565b600160035f8373ffffffffffffffffffffffffffffffffffffffff1673ffffffffffffffffffffffffffffffffffffffff1681526020019081526020015f205f82825403925050819055505b5f73ffffffffffffffffffffffffffffffffffffffff168573ffffffffffffffffffffffffffffffffffffffff161461139557600160035f8773ffffffffffffffffffffffffffffffffffffffff1673ffffffffffffffffffffffffffffffffffffffff1681526020019081526020015f205f82825401925050819055505b8460025f8681526020019081526020015f205f6101000a81548173ffffffffffffffffffffffffffffffffffffffff021916908373ffffffffffffffffffffffffffffffffffffffff160217905550838573ffffffffffffffffffffffffffffffffffffffff168273ffffffffffffffffffffffffffffffffffffffff167fddf252ad1be2c89b69c2b068fc378daa952ba7f163c4a11628f55a4df523b3ef60405160405180910390a4809150509392505050565b5f815f01549050919050565b6001815f015f828254019250508190555050565b611483828260405180602001604052805f815250611db5565b5050565b8060065f8481526020019081526020015f2090816114a59190612e96565b507ff8e1a15aba9398e019f0b49df1a4fde98ee17ae345cb5f6b5e2c27f5033e8ce7826040516114d591906125b6565b60405180910390a15050565b604051806040016040528082815260200160011515815250600a5f8481526020019081526020015f205f820151815f01556020820151816001015f6101000a81548160ff02191690831515021790555090505061153f333084611592565b3373ffffffffffffffffffffffffffffffffffffffff16827ffab8e48de0bee6ffd9a8aa3f73921730389df7e077f3176ef86a12bf1990b5ff8360405161158691906125b6565b60405180910390a35050565b5f73ffffffffffffffffffffffffffffffffffffffff168273ffffffffffffffffffffffffffffffffffffffff1603611602575f6040517f64a0ae920000000000000000000000000000000000000000000000000000000081526004016115f991906123c3565b60405180910390fd5b5f61160e83835f61123f565b90505f73ffffffffffffffffffffffffffffffffffffffff168173ffffffffffffffffffffffffffffffffffffffff160361168057816040517f7e27328900000000000000000000000000000000000000000000000000000000815260040161167791906125b6565b60405180910390fd5b8373ffffffffffffffffffffffffffffffffffffffff168173ffffffffffffffffffffffffffffffffffffffff16146116f4578382826040517f64283d7b0000000000000000000000000000000000000000000000000000000081526004016116eb939291906129da565b60405180910390fd5b50505050565b5f73ffffffffffffffffffffffffffffffffffffffff168273ffffffffffffffffffffffffffffffffffffffff160361176a57816040517f5b08ba1800000000000000000000000000000000000000000000000000000000815260040161176191906123c3565b60405180910390fd5b8060055f8573ffffffffffffffffffffffffffffffffffffffff1673ffffffffffffffffffffffffffffffffffffffff1681526020019081526020015f205f8473ffffffffffffffffffffffffffffffffffffffff1673ffffffffffffffffffffffffffffffffffffffff1681526020019081526020015f205f6101000a81548160ff0219169083151502179055508173ffffffffffffffffffffffffffffffffffffffff168373ffffffffffffffffffffffffffffffffffffffff167f17307eab39ab6107e8899845ad3d59bd9653f200f220920489ca2b5937696c31836040516118569190612263565b60405180910390a3505050565b5f8373ffffffffffffffffffffffffffffffffffffffff163b1115611a0f578273ffffffffffffffffffffffffffffffffffffffff1663150b7a026118a6611226565b8685856040518563ffffffff1660e01b81526004016118c89493929190612fb7565b6020604051808303815f875af192505050801561190357506040513d601f19601f820116820180604052508101906119009190613015565b60015b611984573d805f8114611931576040519150601f19603f3d011682016040523d82523d5f602084013e611936565b606091505b505f81510361197c57836040517f64a0ae9200000000000000000000000000000000000000000000000000000000815260040161197391906123c3565b60405180910390fd5b805181602001fd5b63150b7a0260e01b7bffffffffffffffffffffffffffffffffffffffffffffffffffffffff1916817bffffffffffffffffffffffffffffffffffffffffffffffffffffffff191614611a0d57836040517f64a0ae92000000000000000000000000000000000000000000000000000000008152600401611a0491906123c3565b60405180910390fd5b505b50505050565b606060405180602001604052805f815250905090565b6060611a3682611167565b505f611a40611a15565b90505f815111611a5e5760405180602001604052805f815250611a89565b80611a6884611dd0565b604051602001611a79929190612cd6565b6040516020818303038152906040525b915050919050565b5f7f01ffc9a7000000000000000000000000000000000000000000000000000000007bffffffffffffffffffffffffffffffffffffffffffffffffffffffff1916827bffffffffffffffffffffffffffffffffffffffffffffffffffffffff1916149050919050565b5f60025f8381526020019081526020015f205f9054906101000a900473ffffffffffffffffffffffffffffffffffffffff169050919050565b8080611b6b57505f73ffffffffffffffffffffffffffffffffffffffff168273ffffffffffffffffffffffffffffffffffffffff1614155b15611c9d575f611b7a84611167565b90505f73ffffffffffffffffffffffffffffffffffffffff168373ffffffffffffffffffffffffffffffffffffffff1614158015611be457508273ffffffffffffffffffffffffffffffffffffffff168173ffffffffffffffffffffffffffffffffffffffff1614155b8015611bf75750611bf58184610ff8565b155b15611c3957826040517fa9fbf51f000000000000000000000000000000000000000000000000000000008152600401611c3091906123c3565b60405180910390fd5b8115611c9b57838573ffffffffffffffffffffffffffffffffffffffff168273ffffffffffffffffffffffffffffffffffffffff167f8c5be1e5ebec7d5bd14f71427d1e84f3dd0314c0f7b2291e5b200ac8c7c3b92560405160405180910390a45b505b8360045f8581526020019081526020015f205f6101000a81548173ffffffffffffffffffffffffffffffffffffffff021916908373ffffffffffffffffffffffffffffffffffffffff16021790555050505050565b611cfd838383611e9a565b611db0575f73ffffffffffffffffffffffffffffffffffffffff168373ffffffffffffffffffffffffffffffffffffffff1603611d7157806040517f7e273289000000000000000000000000000000000000000000000000000000008152600401611d6891906125b6565b60405180910390fd5b81816040517f177e802f000000000000000000000000000000000000000000000000000000008152600401611da7929190613040565b60405180910390fd5b505050565b611dbf8383611f5a565b611dcb5f848484611863565b505050565b60605f6001611dde8461204d565b0190505f8167ffffffffffffffff811115611dfc57611dfb612602565b5b6040519080825280601f01601f191660200182016040528015611e2e5781602001600182028036833780820191505090505b5090505f82602001820190505b600115611e8f578080600190039150507f3031323334353637383961626364656600000000000000000000000000000000600a86061a8153600a8581611e8457611e83613067565b5b0494505f8503611e3b575b819350505050919050565b5f8073ffffffffffffffffffffffffffffffffffffffff168373ffffffffffffffffffffffffffffffffffffffff1614158015611f5157508273ffffffffffffffffffffffffffffffffffffffff168473ffffffffffffffffffffffffffffffffffffffff161480611f125750611f118484610ff8565b5b80611f5057508273ffffffffffffffffffffffffffffffffffffffff16611f38836111ed565b73ffffffffffffffffffffffffffffffffffffffff16145b5b90509392505050565b5f73ffffffffffffffffffffffffffffffffffffffff168273ffffffffffffffffffffffffffffffffffffffff1603611fca575f6040517f64a0ae92000000000000000000000000000000000000000000000000000000008152600401611fc191906123c3565b60405180910390fd5b5f611fd683835f61123f565b90505f73ffffffffffffffffffffffffffffffffffffffff168173ffffffffffffffffffffffffffffffffffffffff1614612048575f6040517f73c6ac6e00000000000000000000000000000000000000000000000000000000815260040161203f91906123c3565b60405180910390fd5b505050565b5f805f90507a184f03e93ff9f4daa797ed6e38ed64bf6a1f01000000000000000083106120a9577a184f03e93ff9f4daa797ed6e38ed64bf6a1f010000000000000000838161209f5761209e613067565b5b0492506040810190505b6d04ee2d6d415b85acef810000000083106120e6576d04ee2d6d415b85acef810000000083816120dc576120db613067565b5b0492506020810190505b662386f26fc10000831061211557662386f26fc10000838161210b5761210a613067565b5b0492506010810190505b6305f5e100831061213e576305f5e100838161213457612133613067565b5b0492506008810190505b612710831061216357612710838161215957612158613067565b5b0492506004810190505b60648310612186576064838161217c5761217b613067565b5b0492506002810190505b600a8310612195576001810190505b80915050919050565b60405180604001604052805f81526020015f151581525090565b5f604051905090565b5f80fd5b5f80fd5b5f7fffffffff0000000000000000000000000000000000000000000000000000000082169050919050565b6121fd816121c9565b8114612207575f80fd5b50565b5f81359050612218816121f4565b92915050565b5f60208284031215612233576122326121c1565b5b5f6122408482850161220a565b91505092915050565b5f8115159050919050565b61225d81612249565b82525050565b5f6020820190506122765f830184612254565b92915050565b5f81519050919050565b5f82825260208201905092915050565b5f5b838110156122b3578082015181840152602081019050612298565b5f8484015250505050565b5f601f19601f8301169050919050565b5f6122d88261227c565b6122e28185612286565b93506122f2818560208601612296565b6122fb816122be565b840191505092915050565b5f6020820190508181035f83015261231e81846122ce565b905092915050565b5f819050919050565b61233881612326565b8114612342575f80fd5b50565b5f813590506123538161232f565b92915050565b5f6020828403121561236e5761236d6121c1565b5b5f61237b84828501612345565b91505092915050565b5f73ffffffffffffffffffffffffffffffffffffffff82169050919050565b5f6123ad82612384565b9050919050565b6123bd816123a3565b82525050565b5f6020820190506123d65f8301846123b4565b92915050565b6123e5816123a3565b81146123ef575f80fd5b50565b5f81359050612400816123dc565b92915050565b5f806040838503121561241c5761241b6121c1565b5b5f612429858286016123f2565b925050602061243a85828601612345565b9150509250929050565b5f805f6060848603121561245b5761245a6121c1565b5b5f612468868287016123f2565b9350506020612479868287016123f2565b925050604061248a86828701612345565b9150509250925092565b5f81519050919050565b5f82825260208201905092915050565b5f819050602082019050919050565b6124c681612326565b82525050565b6124d581612249565b82525050565b604082015f8201516124ef5f8501826124bd565b50602082015161250260208501826124cc565b50505050565b5f61251383836124db565b60408301905092915050565b5f602082019050919050565b5f61253582612494565b61253f818561249e565b935061254a836124ae565b805f5b8381101561257a5781516125618882612508565b975061256c8361251f565b92505060018101905061254d565b5085935050505092915050565b5f6020820190508181035f83015261259f818461252b565b905092915050565b6125b081612326565b82525050565b5f6020820190506125c95f8301846125a7565b92915050565b5f602082840312156125e4576125e36121c1565b5b5f6125f1848285016123f2565b91505092915050565b5f80fd5b5f80fd5b7f4e487b71000000000000000000000000000000000000000000000000000000005f52604160045260245ffd5b612638826122be565b810181811067ffffffffffffffff8211171561265757612656612602565b5b80604052505050565b5f6126696121b8565b9050612675828261262f565b919050565b5f67ffffffffffffffff82111561269457612693612602565b5b61269d826122be565b9050602081019050919050565b828183375f83830152505050565b5f6126ca6126c58461267a565b612660565b9050828152602081018484840111156126e6576126e56125fe565b5b6126f18482856126aa565b509392505050565b5f82601f83011261270d5761270c6125fa565b5b813561271d8482602086016126b8565b91505092915050565b5f806040838503121561273c5761273b6121c1565b5b5f83013567ffffffffffffffff811115612759576127586121c5565b5b612765858286016126f9565b925050602061277685828601612345565b9150509250929050565b5f61278a82612384565b9050919050565b61279a81612780565b82525050565b5f6020820190506127b35f830184612791565b92915050565b6127c281612249565b81146127cc575f80fd5b50565b5f813590506127dd816127b9565b92915050565b5f80604083850312156127f9576127f86121c1565b5b5f612806858286016123f2565b9250506020612817858286016127cf565b9150509250929050565b5f67ffffffffffffffff82111561283b5761283a612602565b5b612844826122be565b9050602081019050919050565b5f61286361285e84612821565b612660565b90508281526020810184848401111561287f5761287e6125fe565b5b61288a8482856126aa565b509392505050565b5f82601f8301126128a6576128a56125fa565b5b81356128b6848260208601612851565b91505092915050565b5f805f80608085870312156128d7576128d66121c1565b5b5f6128e4878288016123f2565b94505060206128f5878288016123f2565b935050604061290687828801612345565b925050606085013567ffffffffffffffff811115612927576129266121c5565b5b61293387828801612892565b91505092959194509250565b5f8060408385031215612955576129546121c1565b5b5f612962858286016123f2565b9250506020612973858286016123f2565b9150509250929050565b7f4e487b71000000000000000000000000000000000000000000000000000000005f52602260045260245ffd5b5f60028204905060018216806129c157607f821691505b6020821081036129d4576129d361297d565b5b50919050565b5f6060820190506129ed5f8301866123b4565b6129fa60208301856125a7565b612a0760408301846123b4565b949350505050565b7f4e487b71000000000000000000000000000000000000000000000000000000005f52601160045260245ffd5b5f612a4682612326565b91507fffffffffffffffffffffffffffffffffffffffffffffffffffffffffffffffff8203612a7857612a77612a0f565b5b600182019050919050565b7f4e487b71000000000000000000000000000000000000000000000000000000005f52603260045260245ffd5b7f5072696365206d757374206265206174206c6561737420746865206c697374695f8201527f6e67207072696365000000000000000000000000000000000000000000000000602082015250565b5f612b0a602883612286565b9150612b1582612ab0565b604082019050919050565b5f6020820190508181035f830152612b3781612afe565b9050919050565b7f496e636f7272656374206c697374696e672070726963650000000000000000005f82015250565b5f612b72601783612286565b9150612b7d82612b3e565b602082019050919050565b5f6020820190508181035f830152612b9f81612b66565b9050919050565b7f496e636f72726563742070726963652073656e740000000000000000000000005f82015250565b5f612bda601483612286565b9150612be582612ba6565b602082019050919050565b5f6020820190508181035f830152612c0781612bce565b9050919050565b7f4f6e6c7920746865206f776e65722063616e2075706461746520746865206c695f8201527f7374207072696365000000000000000000000000000000000000000000000000602082015250565b5f612c68602883612286565b9150612c7382612c0e565b604082019050919050565b5f6020820190508181035f830152612c9581612c5c565b9050919050565b5f81905092915050565b5f612cb08261227c565b612cba8185612c9c565b9350612cca818560208601612296565b80840191505092915050565b5f612ce18285612ca6565b9150612ced8284612ca6565b91508190509392505050565b5f819050815f5260205f209050919050565b5f6020601f8301049050919050565b5f82821b905092915050565b5f60088302612d557fffffffffffffffffffffffffffffffffffffffffffffffffffffffffffffffff82612d1a565b612d5f8683612d1a565b95508019841693508086168417925050509392505050565b5f819050919050565b5f612d9a612d95612d9084612326565b612d77565b612326565b9050919050565b5f819050919050565b612db383612d80565b612dc7612dbf82612da1565b848454612d26565b825550505050565b5f90565b612ddb612dcf565b612de6818484612daa565b505050565b5b81811015612e0957612dfe5f82612dd3565b600181019050612dec565b5050565b601f821115612e4e57612e1f81612cf9565b612e2884612d0b565b81016020851015612e37578190505b612e4b612e4385612d0b565b830182612deb565b50505b505050565b5f82821c905092915050565b5f612e6e5f1984600802612e53565b1980831691505092915050565b5f612e868383612e5f565b9150826002028217905092915050565b612e9f8261227c565b67ffffffffffffffff811115612eb857612eb7612602565b5b612ec282546129aa565b612ecd828285612e0d565b5f60209050601f831160018114612efe575f8415612eec578287015190505b612ef68582612e7b565b865550612f5d565b601f198416612f0c86612cf9565b5f5b82811015612f3357848901518255600182019150602085019450602081019050612f0e565b86831015612f505784890151612f4c601f891682612e5f565b8355505b6001600288020188555050505b505050505050565b5f81519050919050565b5f82825260208201905092915050565b5f612f8982612f65565b612f938185612f6f565b9350612fa3818560208601612296565b612fac816122be565b840191505092915050565b5f608082019050612fca5f8301876123b4565b612fd760208301866123b4565b612fe460408301856125a7565b8181036060830152612ff68184612f7f565b905095945050505050565b5f8151905061300f816121f4565b92915050565b5f6020828403121561302a576130296121c1565b5b5f61303784828501613001565b91505092915050565b5f6040820190506130535f8301856123b4565b61306060208301846125a7565b9392505050565b7f4e487b71000000000000000000000000000000000000000000000000000000005f52601260045260245ffdfea2646970667358221220fd52c239328ce247fbaeb14acdce95b2a19fab7c467cabe69bd9d99d0e9718a364736f6c63430008140033",
  "immutableReferences": {},
  "source": "// SPDX-License-Identifier: MIT\r\npragma solidity ^0.8.0;\r\n\r\nimport \"@openzeppelin/contracts/token/ERC721/extensions/ERC721URIStorage.sol\";\r\nimport \"@openzeppelin/contracts/token/ERC721/ERC721.sol\";\r\nimport \"@openzeppelin/contracts/utils/Counters.sol\";\r\n\r\ncontract NFTMarketplace is ERC721URIStorage {\r\n    using Counters for Counters.Counter;\r\n\r\n    // Contract Owner\r\n    address payable public owner;\r\n\r\n    // Counters for token IDs and items sold\r\n    Counters.Counter private _tokenIds;\r\n\r\n    // Listing price for tokens\r\n    uint256 public listPrice = 0.01 ether;\r\n\r\n    // Structure to represent a listed token\r\n    struct ListedToken {\r\n        uint256 price;\r\n        bool currentlyListed;\r\n    }\r\n\r\n    // Mapping from token ID to listed token information\r\n    mapping(uint256 => ListedToken) private idToListedToken;\r\n\r\n    // Events\r\n    event TokenListedSuccess(\r\n        uint256 indexed tokenId,\r\n        address indexed seller,\r\n        uint256 price\r\n    );\r\n\r\n    // Constructor\r\n    constructor() ERC721(\"NFTMarketplace\", \"NFTM\") {\r\n        owner = payable(msg.sender);\r\n    }\r\n\r\n    // Function to update the listing price\r\n    function updateListPrice(uint256 _listPrice) external {\r\n        require(msg.sender == owner, \"Only the owner can update the list price\");\r\n        listPrice = _listPrice;\r\n    }\r\n\r\n    // Function to get the listing price\r\n    function getListPrice() external view returns (uint256) {\r\n        return listPrice;\r\n    }\r\n\r\n    // Function to create a new token\r\n    function createToken(string memory tokenURI, uint256 price) external payable returns (uint256) {\r\n        require(price >= listPrice, \"Price must be at least the listing price\");\r\n        require(msg.value == listPrice, \"Incorrect listing price\");\r\n\r\n        _tokenIds.increment();\r\n        uint256 newItemId = _tokenIds.current();\r\n        _safeMint(msg.sender, newItemId);\r\n        _setTokenURI(newItemId, tokenURI);\r\n\r\n        _listToken(newItemId, price);\r\n        return newItemId;\r\n    }\r\n\r\n    // Private function to list a new token\r\n    function _listToken(uint256 tokenId, uint256 price) private {\r\n        idToListedToken[tokenId] = ListedToken({\r\n            price: price,\r\n            currentlyListed: true\r\n        });\r\n\r\n        _transfer(msg.sender, address(this), tokenId);\r\n        emit TokenListedSuccess(tokenId, msg.sender, price);\r\n    }\r\n\r\n    // Function to get all NFTs\r\n    function getAllNFTs() external view returns (ListedToken[] memory) {\r\n        uint256 totalItemCount = _tokenIds.current();\r\n        uint256 listedItemCount = 0;\r\n\r\n        for (uint256 i = 1; i <= totalItemCount; i++) {\r\n            if (idToListedToken[i].currentlyListed) {\r\n                listedItemCount++;\r\n            }\r\n        }\r\n\r\n        ListedToken[] memory tokens = new ListedToken[](listedItemCount);\r\n        uint256 index = 0;\r\n\r\n        for (uint256 i = 1; i <= totalItemCount; i++) {\r\n            ListedToken storage item = idToListedToken[i];\r\n            if (item.currentlyListed) {\r\n                tokens[index++] = item;\r\n            }\r\n        }\r\n        return tokens;\r\n    }\r\n\r\n    // Function to get NFTs owned or listed by the caller\r\n    function getMyNFTs() external view returns (ListedToken[] memory) {\r\n        uint256 totalItemCount = _tokenIds.current();\r\n        uint256 itemCount = 0;\r\n\r\n        for (uint256 i = 1; i <= totalItemCount; i++) {\r\n            ListedToken storage item = idToListedToken[i];\r\n            if (ownerOf(i) == msg.sender || item.currentlyListed) {\r\n                itemCount++;\r\n            }\r\n        }\r\n\r\n        ListedToken[] memory items = new ListedToken[](itemCount);\r\n        uint256 index = 0;\r\n\r\n        for (uint256 i = 1; i <= totalItemCount; i++) {\r\n            ListedToken storage item = idToListedToken[i];\r\n            if (ownerOf(i) == msg.sender || item.currentlyListed) {\r\n                items[index++] = item;\r\n            }\r\n        }\r\n        return items;\r\n    }\r\n\r\n    // Function to execute a sale\r\n    function executeSale(uint256 tokenId) external payable {\r\n        ListedToken storage listedToken = idToListedToken[tokenId];\r\n        uint256 price = listedToken.price;\r\n\r\n        require(msg.value == price, \"Incorrect price sent\");\r\n\r\n        listedToken.currentlyListed = false;\r\n\r\n        _transfer(address(this), msg.sender, tokenId);\r\n        payable(owner).transfer(listPrice);\r\n        payable(ownerOf(tokenId)).transfer(price);\r\n    }\r\n}\r\n",
  "sourcePath": "D:\\projects\\educhain\\new1\\contracts\\NFTmarketplace.sol",
  "compiler": {
    "name": "solc",
    "version": "0.8.20+commit.a1b79de6.Emscripten.clang"
  },
  "schemaVersion": "3.4.16",
  "updatedAt": "2024-08-31T06:06:21.857Z",
  "networkType": "ethereum",
  "devdoc": {
    "errors": {
      "ERC721IncorrectOwner(address,uint256,address)": [
        {
          "details": "Indicates an error related to the ownership over a particular token. Used in transfers.",
          "params": {
            "owner": "Address of the current owner of a token.",
            "sender": "Address whose tokens are being transferred.",
            "tokenId": "Identifier number of a token."
          }
        }
      ],
      "ERC721InsufficientApproval(address,uint256)": [
        {
          "details": "Indicates a failure with the `operator`s approval. Used in transfers.",
          "params": {
            "operator": "Address that may be allowed to operate on tokens without being their owner.",
            "tokenId": "Identifier number of a token."
          }
        }
      ],
      "ERC721InvalidApprover(address)": [
        {
          "details": "Indicates a failure with the `approver` of a token to be approved. Used in approvals.",
          "params": {
            "approver": "Address initiating an approval operation."
          }
        }
      ],
      "ERC721InvalidOperator(address)": [
        {
          "details": "Indicates a failure with the `operator` to be approved. Used in approvals.",
          "params": {
            "operator": "Address that may be allowed to operate on tokens without being their owner."
          }
        }
      ],
      "ERC721InvalidOwner(address)": [
        {
          "details": "Indicates that an address can't be an owner. For example, `address(0)` is a forbidden owner in EIP-20. Used in balance queries.",
          "params": {
            "owner": "Address of the current owner of a token."
          }
        }
      ],
      "ERC721InvalidReceiver(address)": [
        {
          "details": "Indicates a failure with the token `receiver`. Used in transfers.",
          "params": {
            "receiver": "Address to which tokens are being transferred."
          }
        }
      ],
      "ERC721InvalidSender(address)": [
        {
          "details": "Indicates a failure with the token `sender`. Used in transfers.",
          "params": {
            "sender": "Address whose tokens are being transferred."
          }
        }
      ],
      "ERC721NonexistentToken(uint256)": [
        {
          "details": "Indicates a `tokenId` whose `owner` is the zero address.",
          "params": {
            "tokenId": "Identifier number of a token."
          }
        }
      ]
    },
    "events": {
      "Approval(address,address,uint256)": {
        "details": "Emitted when `owner` enables `approved` to manage the `tokenId` token."
      },
      "ApprovalForAll(address,address,bool)": {
        "details": "Emitted when `owner` enables or disables (`approved`) `operator` to manage all of its assets."
      },
      "BatchMetadataUpdate(uint256,uint256)": {
        "details": "This event emits when the metadata of a range of tokens is changed. So that the third-party platforms such as NFT market could timely update the images and related attributes of the NFTs."
      },
      "MetadataUpdate(uint256)": {
        "details": "This event emits when the metadata of a token is changed. So that the third-party platforms such as NFT market could timely update the images and related attributes of the NFT."
      },
      "Transfer(address,address,uint256)": {
        "details": "Emitted when `tokenId` token is transferred from `from` to `to`."
      }
    },
    "kind": "dev",
    "methods": {
      "approve(address,uint256)": {
        "details": "See {IERC721-approve}."
      },
      "balanceOf(address)": {
        "details": "See {IERC721-balanceOf}."
      },
      "getApproved(uint256)": {
        "details": "See {IERC721-getApproved}."
      },
      "isApprovedForAll(address,address)": {
        "details": "See {IERC721-isApprovedForAll}."
      },
      "name()": {
        "details": "See {IERC721Metadata-name}."
      },
      "ownerOf(uint256)": {
        "details": "See {IERC721-ownerOf}."
      },
      "safeTransferFrom(address,address,uint256)": {
        "details": "See {IERC721-safeTransferFrom}."
      },
      "safeTransferFrom(address,address,uint256,bytes)": {
        "details": "See {IERC721-safeTransferFrom}."
      },
      "setApprovalForAll(address,bool)": {
        "details": "See {IERC721-setApprovalForAll}."
      },
      "supportsInterface(bytes4)": {
        "details": "See {IERC165-supportsInterface}"
      },
      "symbol()": {
        "details": "See {IERC721Metadata-symbol}."
      },
      "tokenURI(uint256)": {
        "details": "See {IERC721Metadata-tokenURI}."
      },
      "transferFrom(address,address,uint256)": {
        "details": "See {IERC721-transferFrom}."
      }
    },
    "version": 1
  },
  "userdoc": {
    "kind": "user",
    "methods": {},
    "version": 1
  }
}